S00E00006C69627370692E7372656393
S113000049C0000064C0000062C0000060C000007D
S11300105EC000005CC000005AC0000058C0000070
S113002056C0000054C0000052C0000050C0000080
S11300304EC000004CC000004AC0000048C0000090
S113004046C0000044C0000042C0000040C00000A0
S113005064C000003CC000003AC0000038C000008A
S113006036C0000034C0000032C0000030C00000C0
S11300702EC000002CC000002AC0000028C00000D0
S113008026C0000024C0000022C0000020C00000E0
S11300901EC0000011241FBECFEFD0E1DEBFCDBFD4
S11300A011E0A0E0B1E0E0E0F2E000E00BBF02C04C
S11300B007900D92A031B107D9F721E0A0E1B1E09A
S11300C001C01D92A931B207E1F78ED097C098CF35
S11300D088E084B98FEF8EBD10921701109216013B
S11300E01092150110921401109211011092100136
S11300F080EC8CBD08959093170180931601615094
S11301006093150110921401FC0180818EBD089545
S1130110909311018093100108951F920F920FB6CE
S11301200F9211240BB60F922F933F934F935F932B
S11301306F937F938F939F93AF93BF93EF93FF93AB
S113014080911401811107C0E0911201F091130113
S1130150309709F009959091140180911501981731
S113016030F4809114018F5F8093140109C01092C0
S11301701401E0911001F0911101309709F00995F3
S11301808091160190911701009739F02091140184
S1130190FC01E20FF11D80818EBDFF91EF91BF91B3
S11301A0AF919F918F917F916F915F914F913F910B
S11301B02F910F900BBE0F900FBE0F901F901895AC
S11301C080911801813041F468E080E091E093DF90
S11301D082E080931801089568E088E091E08BDF65
S11301E081E080931801089573DF68E088E091E06E
S11301F082DF80EE90E08CDF7894FFCFF894FFCF1D
S113020080402010080402010102040810204080EC
S9030000FC
